:04000000B3EF35F035
:08000800046ED8CF05F0E0CF33
:1000100006F00001E9CF0CF0EACF07F0E1CF08F0DD
:10002000E2CF09F0D9CF0AF0DACF0BF0F3CF12F01C
:10003000F4CF13F0FACF14F0F5CF15F0F6CF16F099
:10004000F7CF17F000C00EF001C00FF002C010F0A3
:1000500003C011F09DA030EF00F09EB03DEF01F025
:10006000F2A836EF00F0F2B28AEF01F09DAA3CEF61
:1000700000F09EBA0AEF01F00EC000F00FC001F0D0
:1000800010C002F011C003F00CC0E9FF07C0EAFF86
:10009000078E08C0E1FF09C0E2FF0AC0D9FF0BC00C
:1000A000DAFF12C0F3FF13C0F4FF14C0FAFF15C04B
:1000B000F5FF16C0F6FF17C0F7FF045006C0E0FFBB
:1000C00005C0D8FF1000F76AD60FF66E000EF722B3
:1000D0000900F55012006E756C6C0000F76AEC0FA9
:1000E000F66E000EF7220900F55012002F75726CA3
:1000F0002E74787400000D0A2D2D25732D2D00000F
:100100000D0A0D0A202020202020202020000D0A8A
:100110000D0A2D2D4641542053746174732D2D0DFD
:100120000A004669727374204641542073746172E8
:1001300074732061743A203078256C580D0A0000E1
:1001400044617461205374617274732041743A2065
:100150003078256C580D0A00526F6F742044697214
:100160006563746F72792049732041743A20307846
:10017000256C580D0A004279746573205065722011
:10018000436C75737465723A203078256C580D0A8B
:1001900000000D0A0D0A2D2D000020496E666F2DFE
:1001A0002D000D0A417474726962757465733A208A
:1001B0003078255800000D0A437265617465643A11
:1001C00020000D0A4D6F6469666965643A2000007D
:1001D0000D0A5374617274696E6720636C75737471
:1001E00065723A20256C58000D0A53746172746967
:1001F0006E6720616464726573733A20256C5800E1
:100200000D0A53697A653A20256C75204279746528
:10021000730D0A009EAAFED7AECF02F3030102516E
:100220002A0812E1010E466F446B456B45513B08AD
:100230000AE3036A4551030FE96E030E0320EA6ED9
:10024000EF6A452BF3D708D00251230805E1466B2E
:10025000010E02014D6F0301462D0AD0036A44517D
:10026000030FE96E030E0320EA6E02C3EFFF442B77
:10027000432B9E9A00013CEF00F0150ECF6EA00EAE
:10028000CE6E02013F2BD8B4402B412BD8B4422B69
:10029000432BD8B4442B452BD8B4462B4151B80836
:1002A00005E142510B0802E1426B416B4351B80832
:1002B00005E144510B0802E1446B436B4551B8081A
:1002C00005E146510B0802E1466B456B3F51B8080A
:1002D0000AE140510B0807E1406B3F6B010E476F8D
:1002E000496F486F4A6F9E9000013CEF00F0010E8D
:1002F0000601085F0DE3060EEA6E080EE96EEF5088
:1003000007E0020E006E002EFED700D0EF2EF9D7C8
:1003100000011200640E0601086F0001E8DFF2928E
:100320003CEF00F00D0A4572726F72206F70656EBF
:10033000696E672066696C65202725732700457202
:10034000726F7220636C6F73696E672066696C658B
:100350002027257327004E6F2053440A00004C6F5E
:10036000692043616D204269656E2025642021214A
:10037000210A00004C6F692043616D204269656E5F
:10038000202564202121210A00002A74696D65233B
:1003900000006C6F69206765742074696D650000EA
:1003A00055524C656570726F6D3A202A25732A0A82
:1003B00000002A6F6E646174612300002A6F6E640E
:1003C000617461230000436F756E74206368656318
:1003D0006B203A20256400002A6F6E6461746123EB
:1003E00000002675726C3B25733F74656D703D256A
:1003F000662668756D693D2566266C696768743D7B
:100400002566266E6F6973653D25662670613D25FC
:100410006626706D32353D256626736F323D257335
:10042000266E6F323D257326636F3D257326706DF2
:1004300031303D25662677696E643D256426706FF0
:100440007765723D25662674656D70696E3D256C15
:10045000752668756D69696E3D256C7523002A6780
:100460006574230046696E6973682067657464610A
:10047000746100004572726F722067657464617404
:100480006100040EEA6EBA0EE96EEF500EE00F0E38
:10049000016E006A002EFED7012EFBD78F0E006E74
:1004A000002EFED70000EF2EF2D7120094908B9012
:1004B000080E016E00D00000018E10D0019E0401D4
:1004C000CB330001D8B08B80D8A08B90018C06D0A4
:1004D000019C012EF4D700D000008B80010E006E2D
:1004E000E96AE92EFED7002EFBD7990EE96EE92EB8
:1004F000FED7000001BEE2D701BCEAD712009D8AF8
:10050000A50ECD6EF19CF2889D80C050C00B0109F4
:10051000C06EC08EC280C150C00B0C09C16EC00E2F
:10052000F2126BEF36F006010051080806E0016F89
:100530000501FF370601012FFBD79684969096920E
:100540008D9200C601F60501FFAF8D90FFBF8D8033
:10055000FF378D82040E0601026F022FFED701368F
:1005600084A4019084B401808D92030E026F022F47
:10057000FED7012FE8D7000112000501FF69080E20
:100580000601006F0001CFDF939C8A8C1200939CC0
:100590008A9C12000601056B026B0151025D23E289
:1005A0000501FFC5E9FF00C6EAFFEFCF04F606012B
:1005B000036B035107080CE3D89005370451051964
:1005C000800B02E0090E051BD8900437032BF1D7EE
:1005D000059F0251022B0501FF2BD8A402D0060172
:1005E000002B0601DAD7D880053705C601F00001D7
:1005F00014EF03F00501F4514009F96FF8C5FAF55D
:10060000F7C5FBF5F6C5FCF5F5C5FDF5020120A122
:100610000FD0050E0601006FF90E0501FF6F050EE4
:100620000601016F0001B6D701C0FEF504D002013A
:100630000501FE690001F9C5FFF5080E0601006F0E
:10064000000171DFFAC5FFF5080E0601006F000119
:100650006ADFFBC5FFF5080E0601006F000163DFCE
:10066000FCC5FFF5080E0601006F00015CDFFDC54B
:10067000FFF5080E0601006F000155DFFEC5FFF50E
:10068000080E0601006F00014EDF000E016E120021
:100690000501F46BF569F55312E0FF69080E0601D8
:1006A000006F000140DF015001C0F4F50501F43D89
:1006B00001D003D0F4C501F004D0F507ECD7800ECB
:1006C000016E000112000501F46BF86BF76BF66B1D
:1006D000F56B00018FDFDCDF0150D1EF04F0010E7C
:1006E0000501F46FF86BF76BF66BF56B000182DFB9
:1006F000CFDF0150E7EF04F0370E0501F46FF86B20
:10070000F76BF66BF56B000175DFC2DF0150F9EF97
:1007100004F0290E0501F46FF86BF76BF66BF56BBF
:10072000000168DFB5DF0150FCEF04F0100E050199
:10073000F46FBDC4F8F5BCC4F7F5BBC4F6F5BAC494
:10074000F5F5000157DFA4DF015013EF05F03B0E74
:100750000501F46FF86BF76BF66BBAC4F5F50001A1
:1007600049DF020120910401BAA103D002012081D6
:10077000040100018DDF015025EF05F0110E050188
:10078000F46FF3C5F8F5F2C5F7F5F1C5F6F5F0C568
:10079000F5F500012FDF7CDF015021EF04F078DF59
:1007A00001C0F1F50501F051F15D03E1000E016EAC
:1007B00002D0F1C501F0000130EF04F00501FB6B40
:1007C000FA6BF76BF651F75D29E2F4C5E9FFF5C561
:1007D000EAFFEFCFF9F5F86BF851070818E3D89066
:1007E000FA37FB37F951FA19FC6FFB51FD6F000B1B
:1007F000006EFD51800B036E0050031004E0210ECB
:10080000FA1B100EFB1BD890F937F82BE5D7FB9F8E
:10081000F751F72BF42BD8B4F52BD4D7D880FA376F
:10082000FB37FAC501F0FBC502F000011200AFDE94
:10083000E8C5F3F5E7C5F2F5E6C5F1F5E5C5F0F570
:100840009DD701C0EDF50501ED5306E0000195DEF1
:100850000501EDC501F074D0FE0EF06F00019FD7C9
:1008600001C0EDF50501ED5306E0000186DE05014E
:10087000EDC501F065D0EF6BEE6BEF51EA5D19E36A
:1008800003E1E951EE5D15E2EB51EE25E96EEC5125
:10089000EF21EA6EFF69080E0601006F000143DEDA
:1008A000015001C0EFFF010E0501EE27000EEF23FE
:1008B000E4D7020120A130D00501FF69080E06012E
:1008C000006F000130DE015001C0F0F50501FF6945
:1008D000080E0601006F000126DE015001C0F1F58F
:1008E000F0C5F3F501C0F2F50501F56B200EF46FCC
:1008F000F66B000163DF02C003F001500501F25DF9
:1009000003E10350F35D06E0000137DE080E016EDF
:10091000050116D010D002010501FF69080E06017D
:10092000006F000100DE0501FF69080E0601006F7F
:100930000001F9DD0501000120DE000E016E050158
:100940000001B6EF04F00201209324C2E8F523C2AF
:10095000E7F522C2E6F521C2E5F5020E0501EA6FD0
:10096000E96BEC6B200EEB6F000161D701501200B8
:1009700002012081246B236B226B216B969296904F
:10098000939C96840001F9DD0F0E0401BA6F0001FB
:1009900078DD0401B86B010EBA6F000172DDF7DD7E
:1009A00092D601C0B9F4E9DD0401B82BB83D06D0F8
:1009B0000001E3DD0401B9C401F05AD0B9A1EBD7BD
:1009C000B86B010EBA6F00015CDDE1DD88D601C0B5
:1009D000B9F4D3DD0401B82BB83D06D00001CDDD5C
:1009E0000401B9C401F044D0B9B1EBD70001CFDDA7
:1009F00083D601C0B9F48DD601C0B9F4BEDD0401BF
:100A0000B951040804E10201208503D00401020168
:100A100020950001BCDD0401BD6BBC6B020EBB6FF9
:100A2000BA6B000183D601C0B9F40401B95306E0E2
:100A30000001A3DD0401B9C401F01AD000019DDD5D
:100A4000A6DD0401BA6B000182D601C0B9F404012D
:100A5000B95306E0000191DD0401B9C401F008D0EA
:100A600000018BDD70DF01C0B9F40401B9C401F0ED
:100A70000001DCEF06F0180E0501F46FF3C5F8F580
:100A8000F2C5F7F5F1C5F6F5F0C5F5F50001B2DDF3
:100A9000FFDD015056EF05F07ADDE8C5F3F5E7C557
:100AA000F2F5E6C5F1F5E5C5F0F5E5D701C0EDF5E0
:100AB0000501ED5306E0000160DD0501EDC501F023
:100AC00066D0FE0EFF6F080E0601006F00012BDDE1
:100AD0000501EF6BEE6BEF51EA5D17E303E1E951BE
:100AE000EE5D13E2EB51EE25E96EEC51EF21EA6E7B
:100AF000EFCFFFF5080E0601006F000114DD010EB7
:100B00000501EE27000EEF23E6D7020120A115D044
:100B1000ECC5F5F5EBC5F4F5E9C5F6F500014EDEDB
:100B200002C0F1F501C0F0F501C0FFF5080E0601A5
:100B3000006F0001F8DC0FD002010501FF69080E0B
:100B40000601006F0001EFDC0501FF69080E0601D8
:100B5000006F0001E8DC9CDD01C0EDF50501ED5101
:100B60000A0B06E0000109DD0501EDC501F00FD01B
:100B7000FF69080E0601006F0001D5DC0150D8A402
:100B800002D00501F5D7F9DC000E016E0501000168
:100B9000DFEF05F0020120A315D0209324C2E8F571
:100BA00023C2E7F522C2E6F521C2E5F5020E0501F2
:100BB000EA6FE96BEC6B200EEB6F00016DD7015013
:100BC00004D00201000E016E000112000501E06B6D
:100BD000DD51010B016E026A036ADC51DC5DE16FDD
:100BE0000150DD59E26F0250DE59E36F0350DF59C7
:100BF000E46FE1510201215D0FE10501E2510201C3
:100C0000225D0AE10501E3510201235D05E10501D1
:100C1000E4510201245D1BE020A30CD00001BADFE7
:100C200001C0E0F50501E05303E0E0C501F012D09A
:100C300002012093E4C524F2E3C523F2E2C522F2C7
:100C4000E1C521F200017FDE01C0E0F502010501EE
:100C5000E0C501F000011200D3C5DFF5D2C5DEF515
:100C6000D1C5DDF5D0C5DCF5B1DF01C0D6F5050194
:100C7000D65303E0D6C501F015D0D151010BDA6F80
:100C8000DB6BDC6B200ED025E96E000EDA21EA6EFC
:100C9000EFCFDDF5D5C5EAFFD4C5E9FFDDC5EFFF30
:100CA000000E016E000189EF06F00501C96BC86BEB
:100CB000C951C45D3AE303E1C351C85D36E2C2C520
:100CC000D3F5C1C502F0C0C501F0BFC500F0010EEB
:100CD000BF27D8B0C02BD8B4C12BD8B4C22B02C008
:100CE000CCF501C0CBF500C0CAF5C6C503F0C551AF
:100CF000C52BD8B4C62BCE6F03C0CFF502C0D2F53A
:100D000001C0D1F500C0D0F503C0D5F5D46F000106
:100D1000A3D701C0C7F50501C75303E0C7C501F05C
:100D200006D0C82BD8B4C92BC3D7000E016E000162
:100D300012000401CA51CC03F3CF01F0F4CF00F04C
:100D4000CD03F3500026CB51CC03F3500020026EAC
:100D5000000112000501D26BD36B010ED46FDA6A69
:100D6000D96A050ED76FCA0ED66F050EEA6ECE0E83
:100D7000E96ED7C5E2FFD6C5E1FFD4C5D5F5D89059
:100D8000E550EE02F350D223F450D323D52FF7D7FA
:100D9000D2C5DEFFD3C5D2F5D36BD8B0D32BD62BBB
:100DA000D8B4D72BD42BD4510508DFE100011200B1
:100DB0000401A36B0001DCD501500401A327050148
:100DC000C26BC16BC06B0B0EBF6FC46B020EC36FE7
:100DD000040EC66FA60EC56F000167DF0150040147
:100DE000A3270501C26BC16BC06B0D0EBF6FC46B37
:100DF000010EC36F040EC66FA50EC56F000155DF4F
:100E000001500401A3270501C26BC16BC06B0E0E1C
:100E1000BF6FC46B020EC36F040EC66FA80EC56F02
:100E2000000143DF01500401A3270501C26BC16B20
:100E3000C06B100EBF6FC46B010EC36F040EC66F84
:100E4000A40EC56F000131DF01500401A327050185
:100E5000C26BC16BC06B130EBF6FC46B020EC36F4E
:100E6000040EC66FAA0EC56F00011FDF01500401FA
:100E7000A3270501C26BC16BC06B240EBF6FC46B8F
:100E8000040EC36FC66FB40EC56F00010EDF0150B4
:100E90000401A3270501C26BC16BC06B1C0EBF6FA1
:100EA000C46B040EC36FC66FAC0EC56F0001FDDED0
:100EB00001500401A3270501C26BC16BC06B200E5A
:100EC000BF6FC46B040EC36FC66FB00EC56F000159
:100ED000ECDE01500401A3270501C26BC16B030EB8
:100EE000C06FEC0EBF6FC46B040EC36F020EC66FF3
:100EF000310EC56F0001D9DE01500401A327A353B1
:100F000003E0FF0E016E6DD0CB6BA5C4CAF4A7C47D
:100F1000CDF4A6C4CCF400010CDF02C026F201C05F
:100F200025F2A6C400F0A7C401F0026A036A03C058
:100F3000BBF402C0BAF4A7C4B9F4A6C4B8F4B7C4E9
:100F4000CDF5B6C4CCF5B5C4CBF5B4C4CAF503C071
:100F5000D1F502C0D0F5A7C4CFF5A6C4CEF5FADE10
:100F600003C030F202C02FF201C02EF200C02DF2F9
:100F7000A9C4CBF4A8C4CAF4A7C4CDF4A6C4CCF4C5
:100F8000D8DE02C028F201C027F20501CD6BCC6B80
:100F9000CB6BA4C4CAF530C2D1F52FC2D0F52EC296
:100FA000CFF52DC2CEF50001D5DE00500201272578
:100FB000356F01502821366F000E0220376F000E6A
:100FC0000320386F25513525296F265136212A6F88
:100FD000000E37212B6F000E38212C6F000E016E92
:100FE0000401000109EF08F00900F5520DE0F6CF09
:100FF000A4F4F7CFA5F4F5CFCBF456EC02F0A4C4DB
:10100000F6FFA5C4F7FFF0D712000401A16B0001A1
:10101000CFD60401A29101B0A281A2A108D0560EA0
:10102000F66E030EF76E0001DFDF05D00401010E3E
:10103000016E12D000010401A12B040EA36FFA0E61
:10104000BA6F000141EC02F00401A32FF8D7A151BF
:101050000408DDE2000E016E000170EF36F0AEC54F
:10106000B0F5ADC5AFF5B0C503F00501AFC5E9FFFB
:10107000B0C5EAFFEF5206E0AF2BD8B4B02B0001A9
:10108000F2D70501AD51AF5D006EAE51B059036EA0
:1010900000C001F0026E000112000501896B886B2F
:1010A00088510A083BE3885180258A6F000E812110
:1010B0008B6F000E82218C6F000E83218D6FC26FAB
:1010C0008CC5C1F58BC5C0F58AC5BFF5C46B010ED3
:1010D000C36F050EC66F870EC56F0001E6DD0152B6
:1010E00003E0FF0E016E72D005018751200813E066
:1010F00089518425E96E000E8521EA6E87514008EA
:1011000006E287515A0803E38751200901D087512D
:10111000EF6E010E8927010E8827C2D789518425D9
:10112000E96E000E8521EA6EEF6A8651100844E0F0
:1011300085C5AEF584C5ADF5000191DF02C08BF524
:1011400001C08AF505018B5303E18A51030834E29B
:1011500085C5AEF584C5ADF5000181DF01C089F517
:1011600089C588F5030E0501895D885D1DE01CE3D6
:1011700088518425016E000E8521036E01C08AF519
:101180008B6F010E885D8425E96E000E8521EA6E65
:10119000EFCF8CF503C0EAFF01C0E9FF8CC5EFFF7C
:1011A00088070001DFD7050188518425E96E000E0C
:1011B0008521EA6E2E0EEF6E010E89258425E96EDB
:1011C000000E8521EA6EEF6A000E016E000159EFF4
:1011D0000BF0D8B204D0050EEA6ECC0EE96E006AB0
:1011E000016A026A036A0501CC6BCD6BCE6BCF6BD3
:1011F000CB51CA11C911C8112CE0200ED06FD89064
:10120000C437C537C637C737CC37CD37CE37CF37DA
:10121000CB51CF5D08E1CA51CE5D05E1C951CD5D2D
:1012200002E1C851CC5D0FE3C851CC5FC951D8A0D1
:10123000C93DCD5FCA51D8A0CA3DCE5FCB51D8A021
:10124000CB3DCF5FD8800036013602360336D02F33
:10125000D6D7CCC5EFFFCDC5ECFFCEC5ECFFCFC5D3
:10126000ECFF00011200020135510501BC5DC06FA9
:10127000020136510501BD59C16F02013751050107
:10128000BE59C26F020138510501BF59C36FD892D0
:10129000C76FC2C5C6F5C1C5C5F5C0C5C4F5CB6B22
:1012A000CA6B26C2C9F525C2C8F5000192DF03C08A
:1012B000C3F502C0C2F501C0C1F500C0C0F5020E01
:1012C00005010024006E000E0120016E000E0220B8
:1012D000026E000E0320036E000112000501916BE7
:1012E000906B8F6B010E8E6F956B946B936B926B03
:1012F0008CC5E9FF8DC5EAFFEFCF00F0ECCF01F020
:10130000ECCF02F0ECCF03F00050925D09E1015008
:10131000935D06E10250945D03E10350955D37E073
:10132000010E8E27000E8F23902391238E35976F09
:101330008F35986F9035996F91359A6F97379837A9
:1013400099379A37FC0E9717020127510501972705
:101350000201285105019823000E99239A239AC56A
:10136000C2F599C5C1F598C5C0F597C5BFF5C46B61
:10137000040EC36F050EC66F920EC56F000195DC9B
:10138000015203E0FF0E016E10D00501B1D78CC5EC
:10139000E9FF8DC5EAFF8EC5EFFF8FC5ECFF90C555
:1013A000ECFF91C5ECFF000E016E00018AEF0AF020
:1013B000020E0501C25D006E000EC359016E000EE3
:1013C000C459026E000EC559036EC96F02C0C8F53C
:1013D00001C0C7F500C0C6F5CD6BCC6B26C2CBF5FE
:1013E00025C2CAF5D16F02C0D0F501C0CFF500C04B
:1013F000CEF50001AFDC0201355100263651012245
:1014000037510222385103220001120087C503F030
:10141000050186C5E9FF87C5EAFFEFCF8CF5ECCF64
:101420008DF5ECCF8EF5ECCF8FF58F510201385D45
:1014300015E311E105018E510201375D0FE30BE168
:1014400005018D510201365D09E305E105018C516D
:101450000201355D03E3000E016EB7D087C503F0CE
:10146000050186C5E9FF87C5EAFFEFCFC4F5ECCFDC
:10147000C5F5ECCFC6F5ECCFC7F5EACF91F5E9CFCE
:1014800090F5D882050EEA6E920EE96ECB6BCA6BB0
:1014900026C2C9F525C2C8F500019BDE92C500F041
:1014A00093C501F094C502F095C503F091C5EAFF1C
:1014B00090C5E9FF95C58FF594C58EF593C58DF55B
:1014C00092C58CF505018C5364E18D5362E18E5316
:1014D00060E18F535EE187C503F086C5E9FF87C5EC
:1014E000EAFFEFCFBCF5ECCFBDF5ECCFBEF5ECCF0E
:1014F000BFF50001B8DE03C08BF502C08AF501C05C
:1015000089F500C088F5050E05018D6F880E8C6F7A
:101510000001E4D60150FF0805E1FF0E016E020153
:1015200054D0000187C503F086C58CF587C58DF5BD
:101530008BC5C5F58AC5C4F589C5C3F588C5C2F58F
:10154000000136DF03C091F502C090F501C08FF5B0
:1015500000C08EF5010E0201255D006E000E2659B9
:10156000036E005005018E25006E03500120016EB0
:10157000000E0220026E000E91218DC5EAFF8CC57F
:10158000E9FF00C0EFFF01C0ECFF02C0ECFFEC6E12
:1015900019D086C5E9FF87C5EAFF010EEF5C006E32
:1015A000000EEC58016E000EEC58026E000EEC5866
:1015B000ED52ED52ED5200C0EFFF01C0ECFF02C052
:1015C000ECFFEC6E000E016E0201000101EF0BF06A
:1015D000050180C5E9FF81C5EAFFEFCF82F5ECCFB9
:1015E00083F5ECCF84F5ECCF85F51F0E825F000EFE
:1015F000835B845B855B050E876F820E866F0001BF
:1016000005D70150FF0803E1FF0E016E0FD0050161
:1016100080C5E9FF81C5EAFF82C5EFFF83C5ECFF06
:1016200084C5ECFF85C5ECFF000E016E000169EF7B
:101630000BF00501796B75C57FF574C57EF573C533
:101640007DF572C57CF5150E7C5D806F000E7D59B1
:10165000816F000E7E59826F000E7F59836FC26FBB
:1016600082C5C1F581C5C0F580C5BFF5C46B010E4B
:10167000C36F050EC66F7B0EC56F000155EC06F0FB
:10168000015203E0FF0E016E90D005017B510F085F
:101690001AE07FC583F57EC582F57DC581F57CC5E1
:1016A00080F577C585F576C584F57BC586F500019F
:1016B000F4D40150FF0803E1FF0E016E76D0000E56
:1016C000016E73D00501050E816F7C0E806F0001E5
:1016D0007FD70150FF0803E1FF0E016E66D0010EB7
:1016E0000501786F78511F083DE378510B0803E13D
:1016F0000E0E786F05D078511A0802E11C0E786F33
:1017000078517C25806F000E7D21816F000E7E2137
:10171000826F000E7F21836F79517625016E000E56
:101720007721036E01C084F5856F83C5C2F582C53C
:10173000C1F581C5C0F580C5BFF5C46B010EC36F8F
:1017400003C0C6F501C0C5F5000155EC06F0015215
:1017500003E0FF0E016E29D0020E05017827010E6D
:101760007927C0D77FC5C2F57EC5C1F57DC5C0F557
:101770007CC5BFF5C46B010EC36F050EC66F7A0E34
:10178000C56F000155EC06F0015203E0FF0E016E3B
:101790000CD005017AAD97D779517625E96E000E08
:1017A0007721EA6EEF6A000E016E000195EF14F0EA
:1017B000050172C5E9FF73C5EAFFEFCF76F575C580
:1017C00003F074C5E9FF75C5EAFFEF50765D15E1DA
:1017D00073C503F072C5E9FF03C0EAFFEF5203E1EE
:1017E000000E016E1FD073C503F07251722BD8B476
:1017F000732B742BD8B4752BDCD773C503F072C56B
:10180000E9FF73C5EAFFEFCF76F575C503F074C540
:10181000E9FF75C5EAFFEF50765D02E2FF0E01D0E9
:10182000010E016E0001A9EF14F0B9C503F0050126
:10183000B8C5E9FFB9C5EAFFEFCFBAF5ECCFBBF504
:10184000ECCFBCF5ECCFBDF5BA37BB37BC37BD37F5
:10185000BA37BB37BC37BD37FC0EBA170201275168
:101860000501BA27020128510501BB23000EBC2344
:10187000BD23BDC5C2F5BCC5C1F5BBC5C0F5BAC564
:10188000BFF5C46B040EC36FB9C5C6F5B8C5C5F5C1
:10189000000155EC06F0015203E0FF0E016E02D08C
:1018A000000E016E1200D9C5DFF5D8C5DEF5D7C52B
:1018B000DDF5D6C5DCF5E6EC05F001C0DBF505018C
:1018C000DB5303E0DBC501F012D0D751010BDD6F14
:1018D000DE6BDF6B200ED625E96E000EDD21EA6E91
:1018E000DAC5EFFF02012083000E016E0501000141
:1018F000ADEF0CF00501D06BCF6BD051CB5D39E370
:1019000003E1CA51CF5D35E2C9C5D9F5C8C502F0BA
:10191000C7C501F0C6C500F0010EC627D8B0C72B59
:10192000D8B4C82BD8B4C92B02C0D3F501C0D2F5A6
:1019300000C0D1F5CDC503F0CC51CC2BD8B4CD2B04
:10194000E96E03C0EAFFEFCFDAF502C0D8F501C0B7
:10195000D7F500C0D6F50001A6D701C0CEF5050128
:10196000CE5303E0CEC501F006D0CF2BD8B4D02B98
:10197000C4D7000E016E0001120005019735A06F5B
:101980009835A16F9935A26F9A35A36FA037A1370B
:10199000A237A337FC0EA017020127510501A0278B
:1019A000020128510501A123000EA223A323A3C5F0
:1019B000C9F5A2C5C8F5A1C5C7F5A0C5C6F5CB6BCD
:1019C000040ECA6F050ECD6F9B0ECC6F000192DF27
:1019D000015203E0FF0E016E02D0000E016E1200F4
:1019E00079C57DF578C57CF577C57BF576C57AF543
:1019F0007DC581F57CC580F57BC57FF57AC57EF513
:101A0000050E0501B96F7E0EB86F00010EDF0150A3
:101A1000FF0803E1FF0E016E35D07DC59AF57CC548
:101A200099F57BC598F57AC597F505019E6B9D6B79
:101A30009C6B9B6B0001A1DF0150FF0803E1FF0ECF
:101A4000016E20D081C57DF580C57CF57FC57BF515
:101A50007EC57AF505017A3D01D002D00001D0D7CC
:101A60007B3D01D002D00001CBD77C3D01D002D01C
:101A70000001C6D77D510F08D8B402D00001C0D7ED
:101A8000000E016E000126EF16F0040E0501802500
:101A9000016E000E8121036E01C082F5836F140E6A
:101AA0008025E96E000E8121EA6EEFCF00F0ECCFC9
:101AB00001F0ECCF02F0ECCF03F083C5EAFF82C562
:101AC000E9FF00C0EFFF01C0ECFF02C0ECFF03C064
:101AD000ECFF100E8025E96E000E8121EA6EEFCF3B
:101AE00000F0ECCF01F0ECCF02F0ECCF03F081C5B9
:101AF000EAFF80C5E9FF00C0EFFF01C0ECFF02C0B4
:101B0000ECFF03C0ECFF00011DEF12F0050197C5CB
:101B1000E9FF98C5EAFFEFCFA9F5ECCFAAF5ECCF26
:101B2000ABF5ECCFACF5A937AA37AB37AC37A93753
:101B3000AA37AB37AC37FC0EA917020127510501B4
:101B4000A925A16F020128510501AA21A26F000E4B
:101B5000AB21A36F000EAC21A46FA86BA76BA66B83
:101B6000A56BA8510201305DD8A08AD016E105010D
:101B7000A75102012F5DD8A083D00FE10501A65126
:101B800002012E5DD8A07CD008E12D510501A55D94
:101B9000D8A002D0020174D002010501A551A125EF
:101BA000A96FA651A221AA6FA751A321AB6FA8517B
:101BB000A421AC6FC26FABC5C1F5AAC5C0F5A9C55C
:101BC000BFF5C46B040EC36F050EC66F990EC56FCB
:101BD000000155EC06F0015203E0FF0E016E53D0F8
:101BE0009CC5A0F59BC59FF59AC59EF599C59DF529
:101BF00005019D533DE19E533BE19F5339E1A053C5
:101C000037E1A551A127A651A223A751A323A8518B
:101C1000A42397C5E9FF98C5EAFF020127510501F2
:101C2000A15DAB6F020128510501A259AC6F000EF6
:101C3000A359AD6F000EA459AE6FAE31036EAD3136
:101C4000026EAC31016EAB31006E033202320132F2
:101C500000323F0E031600C0EFFF01C0ECFF02C0D0
:101C6000ECFF03C0ECFF000E016E00010CD005017B
:101C7000040EA527000EA623A723A82372D70201CE
:101C8000FF0E016E000112009AC5C5F599C5C4F595
:101C900098C5C3F597C5C2F5D8EC09F003C0C1F5E6
:101CA00002C0C0F501C0BFF500C0BEF50501BB6BA9
:101CB000BB511F080BE3036ABB519B0FE96E050E76
:101CC0000320EA6EEF6A010EBB27F2D7BD6BBC6B37
:101CD000BD510201265D32E308E125510501BC5DDD
:101CE000D8A002D002012AD002010501BC51BE25B4
:101CF000C26FBD51BF21C36F000EC021C46F000E63
:101D0000C121C56FC96FC4C5C8F5C3C5C7F5C2C574
:101D1000C6F5CB6B200ECA6F050ECD6F9B0ECC6F38
:101D20000001E8DD015203E0FF0E016E0AD0200E33
:101D30000501BC27000EBD23CBD70201000E016EAA
:101D400000011200040E05018325E96E000E8421B6
:101D5000EA6EEFCF86F5ECCF87F5ECCF88F5ECCFC8
:101D600089F51F0E8617876B886B896B86536BE12D
:101D7000875369E1885367E1895365E1040E832540
:101D8000E96E000E8421EA6EEFCF86F5ECCF87F581
:101D9000ECCF88F5ECCF89F5140E8325E96E000EA3
:101DA0008421EA6EEFCF00F0ECCF01F0ECCF02F02F
:101DB000ECCF03F00050865D09E10150875D06E13C
:101DC0000250885D03E10350895D3DE0040E8325E8
:101DD000E96E000E8421EA6EEFCF86F5ECCF87F531
:101DE000ECCF88F5ECCF89F5200E865F000E875B7F
:101DF000885B895B1A0E8325016E000E8421036EB9
:101E000001C08AF58B6F89C5C9F588C5C8F587C536
:101E1000C7F586C5C6F5CB6B200ECA6F03C0CDF5DE
:101E200001C0CCF5000166DD01520EE0190E05017E
:101E30008325E96E000E8421EA6EEF504009EF6EB3
:101E4000FF0E016E29D00001040E05018325E96E05
:101E5000000E8421EA6EEFCF86F5ECCF87F5ECCF4C
:101E600088F5ECCF89F51F0E8617876B886B896B19
:101E70001A0E8625006E000E8721016E000E882145
:101E8000000E892183510024E96E84510120EA6EFD
:101E900085C5EFFF000E016E000146EF11F0B3C5DE
:101EA00003F00501B2C5E9FFB3C5EAFFEFCFB8F50E
:101EB000ECCFB9F5ECCFBAF5ECCFBBF5010EB827F6
:101EC000000EB923BA23BB23EACFBDF5E9CFBCF599
:101ED000D882050EEA6EBE0EE96EBBC5C7F5BAC55F
:101EE000C6F5B9C5C5F5B8C5C4F5CB6BCA6B26C276
:101EF000C9F525C2C8F50001E9EC08F0BEC500F03F
:101F0000BFC501F0C0C502F0C1C503F0BDC5EAFF01
:101F1000BCC5E9FFC1C5BBF5C0C5BAF5BFC5B9F5BC
:101F2000BEC5B8F50501B85363E1B95361E1BA53D1
:101F30005FE1BB535DE1B3C503F0B2C5E9FFB3C5D3
:101F4000EAFFEFCFBCF5ECCFBDF5ECCFBEF5ECCFA3
:101F5000BFF5000133EC09F003C0B7F502C0B6F5D8
:101F600001C0B5F500C0B4F5050E0501B96FB40E9A
:101F7000B86F00015ADC0150FF0803E1FF0E016E4B
:101F800054D00501B43D07D0B53D05D0B63D03D0D2
:101F9000B73D01D009D0B43D0CD0B53D0AD0B63D17
:101FA00008D0B7510F0805E1FF0E016E00013DD0CA
:101FB0000501B3C503F0B2C5B8F5B3C5B9F5B7C5EA
:101FC000C5F5B6C5C4F5B5C5C3F5B4C5C2F50001C0
:101FD000D8EC09F0B9C5EAFFB8C5E9FF00C0EFFFCA
:101FE00001C0ECFF02C0ECFF03C0ECFF1CD00501F8
:101FF000B2C5E9FFB3C5EAFF010EEF24006E000E83
:10200000EC20016E000EEC20026E000EEC20036E40
:10201000ED52ED52ED5200C0EFFF01C0ECFF02C0E7
:10202000ECFFEC6E0001000E016E12008CC592F503
:102030008BC591F58AC590F589C58FF592C596F542
:1020400091C595F590C594F58FC593F5050E0501DD
:10205000986F930E976F000159DD0150FF0803E15F
:10206000FF0E016E5BD092C59AF591C599F590C5AA
:1020700098F58FC597F596C59EF595C59DF594C5C0
:102080009CF593C59BF579DC0150FF0803E1FF0E39
:10209000016E44D096C59AF595C599F594C598F505
:1020A00093C597F50F0E05019E6F9D699C699B690D
:1020B000000163DC0150FF0803E1FF0E016E2ED02A
:1020C00096C59AF595C599F594C598F593C597F574
:1020D000DBDD0150FF0803E1FF0E016E1FD08EC54E
:1020E00003F08DC597F58EC598F596C5C5F595C5D0
:1020F000C4F594C5C3F593C5C2F50001D8EC09F049
:1021000098C5EAFF97C5E9FF00C0EFFF01C0ECFFEB
:1021100002C0ECFF03C0ECFF000E016ED2EF11F025
:10212000190E05018125E96E000E8221EA6EEFB2DB
:1021300008D0190E8125E96E000E8221EA6EEFA407
:1021400059D1180E8125E96E000E8221EA6EEF52F8
:10215000D8A450D1040E8125E96E000E8221EA6ECA
:10216000EFCF83F5ECCF84F5ECCF85F5ECCF86F59A
:10217000865102012C5DD8A081D016E10501855160
:1021800002012B5DD8A07AD00FE105018451020134
:102190002A5DD8A073D008E129510501835DD8A03C
:1021A00002D002016BD00201020E0501986F310EC0
:1021B000976F0001ABDC0150FF0803E1FF0E016ED9
:1021C0001CD134C29AF533C299F532C298F531C2A6
:1021D00097F50F0E05019E6F9D699C699B69000133
:1021E000BDEC0CF00150FF0803E1FF0E016E05D1BC
:1021F00034C29AF533C299F532C298F531C297F5D7
:1022000043DD0150FF0803E1FF0E016EF6D0040E1E
:1022100005018125016E000E8221036E01C083F548
:10222000846F140E8125016E000E8221036E01C0A1
:1022300085F5866F34C2C5F533C2C4F532C2C3F525
:1022400031C2C2F50001D8EC09F086C5EAFF85C5A8
:10225000E9FF00C0EFFF01C0ECFF02C0ECFF03C0CC
:10226000ECFF84C5EAFF83C5E9FF00C0EFFF01C0B2
:10227000ECFF02C0ECFF03C0ECFF020182C584F555
:1022800081C583F580C585F500015CD50150FF0847
:1022900003E1FF0E016EB1D0040E05018125016E30
:1022A000000E8221036E01C083F5846FB36F01C0FD
:1022B000B2F50001F4DD0150FF08D8A479D0040E76
:1022C00005018125E96E000E8221EA6EEFCF83F5CC
:1022D000ECCF84F5ECCF85F5ECCF86F5200E835F4F
:1022E000000E845B855B865B010E8327000E8423D2
:1022F000852386231A0E8125016E000E8221036E2E
:1023000001C087F5886F86C5C9F585C5C8F584C540
:10231000C7F583C5C6F5CB6B200ECA6F03C0CDF5DC
:1023200001C0CCF500017AEC0CF001520EE0190E60
:1023300005018125E96E000E8221EA6EEF50400909
:10234000EF6EFF0E016E000158D0040E05018125CD
:10235000E96E000E8221EA6EEFCFBCF5ECCFBDF541
:10236000ECCFBEF5ECCFBFF5000133EC09F003C0B4
:102370008CF502C085F501C08AF500C083F5040E16
:1023800005018125016E000E8221036E01C087F5D3
:10239000886F02C08BF500C089F58E6F01C08DF586
:1023A000000144D60150FF0803E1FF0E016E25D065
:1023B000100E05018125E96E000E8221EA6E010EE4
:1023C000EF24006E000EEC20016E000EEC20026E79
:1023D000000EEC20ED52ED52ED5200C0EFFF01C0B7
:1023E000ECFF02C0ECFFEC6E80C501F0000105D0EF
:1023F00004D00501FF0E016E00018AEF12F077C5CF
:1024000003F0050176C5E9FF77C5EAFFEFCF80F558
:10241000ECCF81F5ECCF82F5ECCF83F5805311E161
:1024200081530FE182530DE183530BE175C581F5B3
:1024300074C580F5000145EF0DF0000E016ED7D197
:102440000501190E7425E96E000E7521EA6EEFB2D2
:1024500008D0190E7425E96E000E7521EA6EEFA4FE
:1024600066D0100E7425E96E000E7521EA6EEFCF6E
:1024700080F5ECCF81F5ECCF82F5ECCF83F576C516
:10248000E9FF77C5EAFFEFCF00F0ECCF01F0ECCF2A
:1024900002F0ECCF03F08351035C49E30BE182517E
:1024A000025C45E307E18151015C41E303E1005037
:1024B000805D3DE2100E7425E96E000E7521EA6E16
:1024C000EFCF80F5ECCF81F5ECCF82F5ECCF83F543
:1024D00076C5E9FF77C5EAFFEFCF00F0ECCF01F05A
:1024E000ECCF02F0ECCF03F08351035C1BE30BE174
:1024F0008251025C17E307E18151015C13E303E1C0
:102500000050805D0FE2806B75C582F574C581F562
:10251000000106D60150FF0803E1FF0E016E67D1EE
:102520000501C8D7000E016E000161D1050177C514
:1025300003F076C5E9FF77C5EAFFEFCFC4F5ECCF2E
:10254000C5F5ECCFC6F5ECCFC7F5EACF85F5E9CFF9
:1025500084F5D892CB6BCA6B26C2C9F525C2C8F5E3
:102560000001E9EC08F085C5EAFF84C5E9FF03C076
:102570007FF502C07EF501C07DF500C07CF5140E2C
:1025800005017425E96E000E7521EA6EEFCFBCF5EA
:10259000ECCFBDF5ECCFBEF5ECCFBFF5000133ECD1
:1025A00009F003C07BF502C07AF501C079F500C0DF
:1025B00078F505017C5306E17D5304E17E5302E189
:1025C0007F5314E0050EB96F780EB86F000115EC5B
:1025D0000CF0015203E0FF0E016E09D1010E05015E
:1025E0007C5F000E7D5B7E5B7F5BE4D7040E742511
:1025F000016E000E7521036E01C080F5816F7BC5F1
:10260000C5F57AC5C4F579C5C3F578C5C2F500012D
:10261000D8EC09F081C5EAFF80C5E9FF00C0EFFFF3
:1026200001C0ECFF02C0ECFF03C0ECFF040E05018B
:102630007425016E000E752101C080F5816FEA6E70
:1026400001C0E9FFEFCF82F5ECCF83F5ECCF84F545
:10265000ECCF85F577C503F076C5E9FF77C5EAFFCE
:10266000EFCFC4F5ECCFC5F5ECCFC6F5ECCFC7F591
:10267000EACF8BF5E9CF8AF5D882050EEA6E8C0E8B
:10268000E96ECB6BCA6B26C2C9F525C2C8F500013D
:10269000E9EC08F08CC500F08DC501F08EC502F0A4
:1026A0008FC503F08BC5EAFF8AC5E9FF050182519A
:1026B000002683510122845102228551032281C5C3
:1026C000EAFF80C5E9FF00C0EFFF01C0ECFF02C0D8
:1026D000ECFF03C0ECFF190E7425E96E000E7521A6
:1026E000EA6EEFA063D0100E7425E96E000E75211E
:1026F000EA6EEFCF82F5ECCF83F5ECCF84F5ECCF2B
:1027000085F576C5E9FF77C5EAFFEFCF00F0ECCF9E
:1027100001F0ECCF02F0ECCF03F00050825D006ED0
:1027200001508359016E02508459026E035085593D
:1027300075C5EAFF74C5E9FF00C0EFFF01C0ECFFFB
:1027400002C0ECFFEC6E040E7425E96E000E7521DC
:10275000EA6EEFCFBFF5ECCFC0F5ECCFC1F5ECCF13
:10276000C2F51A0E7425016E000E7521036E01C0AC
:1027700084F5856FC46B200EC36F03C0C6F501C01E
:10278000C5F5000155EC06F001520EE0190E0501E9
:102790007425E96E000E7521EA6EEF502009EF6E88
:1027A000FF0E016E000123D020D00501100E74250C
:1027B000016E000E752101C080F576C5E9FF77C571
:1027C000EAFFEFCF00F0ECCF01F0ECCF02F0ECCF5E
:1027D00003F0EA6E80C5E9FF00C0EFFF01C0ECFF27
:1027E00002C0ECFF03C0ECFF0001000E016E70EFB1
:1027F00016F0050172C5E9FF73C5EAFFEFCF74F566
:10280000ECCF75F5ECCF76F5ECCF77F51F0E74278E
:10281000000E752376237723050EB36F740EB26F07
:1028200000014FEC0FF00150FF0803E1FF0E016EB5
:102830000FD0050172C5E9FF73C5EAFF74C5EFFF4C
:1028400075C5ECFF76C5ECFF77C5ECFF000E016E99
:1028500000017AEF17F005014D6B140E4925E96E62
:10286000000E4A21EA6EEFCF4EF5ECCF4FF5ECCFDC
:1028700050F5ECCF51F551C5C2F550C5C1F54FC566
:10288000C0F54EC5BFF5C46B010EC36F050EC66F14
:102890004C0EC56F000155EC06F0015005014D27A7
:1028A0000B0E4E25726F000E4F21736F000E5021DC
:1028B000746F000E5121756FC26F74C5C1F573C579
:1028C000C0F572C5BFF5C46B010EC36F050EC66FB0
:1028D0004B0EC56F000155EC06F0015005014D2768
:1028E0004D530CE0190E4925E96E000E4A21EA6E9F
:1028F000EF502009EF6EFF0E016E13D34C51E50827
:10290000D8B4F0D248514B5DD8A4ECD251C575F57E
:1029100050C574F54FC573F54EC572F5050E776F4A
:10292000520E766F000119EF0BF00150FF0805E120
:10293000FF0E016E0501F5D2000147C573F546C5CE
:1029400072F5050E0501756F520E746F0001D8EF18
:102950000BF00152D8A4C7D20C0E05014925016E17
:10296000000E4A21036E01C072F5736F140E4925E3
:10297000E96E000E4A21EA6EEFCF00F0ECCF01F0D5
:10298000ECCF02F0ECCF03F073C5EAFF72C5E9FFAC
:1029900000C0EFFF01C0ECFF02C0ECFF03C0ECFF82
:1029A0001C0E4E25726F000E4F21736F000E5021CA
:1029B000746F000E5121756F100E4925016E000EC7
:1029C0004A21036E01C076F5776F75C5C2F574C5EF
:1029D000C1F573C5C0F572C5BFF5C46B040EC36FF6
:1029E00003C0C6F501C0C5F5000155EC06F0015065
:1029F00005014D27140E4E25726F000E4F21736F87
:102A0000000E5021746F000E5121756F140E492570
:102A1000016E000E4A21036E01C076F5776F020E3B
:102A20007627000E772375C5C2F574C5C1F573C549
:102A3000C0F572C5BFF5C46B020EC36F77C5C6F58E
:102A400076C5C5F5000155EC06F0015005014D278E
:102A50001A0E4E25726F000E4F21736F000E50211B
:102A6000746F000E5121756F140E4925016E000E12
:102A70004A21036E01C076F5776F75C5C2F574C53E
:102A8000C1F573C5C0F572C5BFF5C46B020EC36F47
:102A900003C0C6F501C0C5F5000155EC06F00150B4
:102AA00005014D274D530CE0190E4925E96E000E26
:102AB0004A21EA6EEF502009EF6EFF0E016E31D20F
:102AC000140E4925016E000E4A21036E01C072F5F5
:102AD000736F140E4925E96E000E4A21EA6EEFCF9E
:102AE000C2F5ECCFC3F5ECCFC4F5ECCFC5F50001D2
:102AF000D8EC09F073C5EAFF72C5E9FF00C0EFFF2B
:102B000001C0ECFF02C0ECFF03C0ECFF080E0501A2
:102B10004925E96E000E4A21EA6E4EC5EFFF4FC50A
:102B2000ECFF50C5ECFF51C5ECFF100E4925E96ED6
:102B3000000E4A21EA6EEFCF00F0ECCF01F0ECCFAF
:102B400002F0ECCF03F04AC5EAFF49C5E9FF00C037
:102B5000EFFF01C0ECFF02C0ECFF03C0ECFF4851E7
:102B60002008D8A4B4D1180E4925E96E000E4A21D8
:102B7000EA6EEF6A190E4925E96E000E4A21EA6EE7
:102B8000EFA27CD0100E4925E96E000E4A21EA6EB4
:102B9000EE52EE52EC6AED52EF6AED52EF6AED52F0
:102BA000EF6A000E4AC5EAFF49C5E9FF00C0EFFF22
:102BB00049C5ECFF02C0ECFF4AC5ECFF140E4925E5
:102BC000E96E000E4A21EA6EEFCF72F5ECCF73F595
:102BD000ECCF74F5ECCF75F502012C510501755D54
:102BE0003CE311E102012B510501745D36E30BE179
:102BF00002012A510501735D30E305E1020129510B
:102C00000501725D2AE3140E4925E96E000E4A2182
:102C1000EA6EEFCFBCF5ECCFBDF5ECCFBEF5ECCF57
:102C2000BFF5000133EC09F003C075F502C074F57F
:102C300001C073F500C072F503C079F502C078F5E4
:102C400001C077F500C076F5F0EF0CF00150FF08F9
:102C500005E1FF0E016E050164D10001040E0501BE
:102C60004925E96E000E4A21EA6EEE52EE52EC6AF8
:102C7000ED52EF6AED52EF6AED52EF6A190E4925F7
:102C8000E96E000E4A21EA6EEFA4C3D0100E49256A
:102C9000E96E000E4A21EA6EEFCF72F5ECCF73F5C4
:102CA000ECCF74F5ECCF75F5725307E1735305E182
:102CB000745303E17553D8B4ACD0100E4925016E9E
:102CC000000E4A21036E01C072F5736F4AC575F597
:102CD00049C574F5776F01C076F50001FFEF11F07B
:102CE00001C04DF5040E05014925E96E000E4A218B
:102CF000EA6EEFCF72F5ECCF73F5ECCF74F5ECCF55
:102D000075F51F0E7217736B746B756B725339E127
:102D1000735337E1745335E1755333E1040E49259C
:102D2000E96E000E4A21EA6EEFCF72F5ECCF73F533
:102D3000ECCF74F5ECCF75F5200E725F000E735B6F
:102D4000745B755B1A0E4925016E000E4A21036EF5
:102D500001C076F5776F75C5C2F574C5C1F573C549
:102D6000C0F572C5BFF5C46B200EC36F03C0C6F5B6
:102D700001C0C5F5000155EC06F0015005014D27D5
:102D800048D0040E4925E96E000E4A21EA6EEFCFC5
:102D900072F5ECCF73F5ECCF74F5ECCF75F5040E4E
:102DA0004925E96E000E4A21EA6EEFCF76F5ECCFA9
:102DB00077F5ECCF78F5ECCF79F576511F0B006EF7
:102DC000016A026A036A0050725F0150735B02502D
:102DD000745B0350755B1A0E4925016E000E4A2183
:102DE000036E01C076F5776F75C5C2F574C5C1F580
:102DF00073C5C0F572C5BFF5C46B200EC36F03C0A9
:102E0000C6F501C0C5F5000155EC06F001500501FD
:102E10004D27190E4925E96E000E4A21EA6EEFA0F2
:102E200047D0040E4925016E000E4A21036E01C0F1
:102E300072F5736F140E4925E96E000E4A21EA6E91
:102E4000EFCF00F0ECCF01F0ECCF02F0ECCF03F0CD
:102E500073C5EAFF72C5E9FF00C0EFFF01C0ECFFD8
:102E600002C0ECFF03C0ECFF040E4925E96E000E22
:102E70004A21EA6EEFCFBFF5ECCFC0F5ECCFC1F53C
:102E8000ECCFC2F51A0E4925016E000E4A21036EE1
:102E900001C076F5776FC46B200EC36F03C0C6F513
:102EA00001C0C5F5000155EC06F001C04DF5050166
:102EB0004D530CE0190E4925E96E000E4A21EA6EC9
:102EC000EF502009EF6EFF0E016E2BD008D0180EC8
:102ED0004925E96E000E4A21EA6E010EEF6E000EE2
:102EE000016E1FD00001050E0501736F4E0E726F4B
:102EF00000017FD40150FF0805E1FF0E016E0501BE
:102F000010D0000105014C53D8A4B5D4190E4925A1
:102F1000E96E000E4A21EA6EEF508009EF6EFF0E57
:102F2000016E00011200010E0401E96F0501446BFE
:102F30000401E551E96EE651EA6EEF50720A0001B4
:102F400005E0050A07E0160A09E00DD0010E0501AB
:102F5000236F0DD0020E0501236F09D0040E050169
:102F6000236F05D00001FF0E016E2ED10501010E69
:102F70000401E525E96E000EE621EA6EEF506208D5
:102F800003E105012387040138C219F537C218F59A
:102F900036C217F535C216F519C521F518C520F545
:102FA00017C51FF516C51EF5E951E325E96E000E9C
:102FB000E421EA6EEF520FE0E951E325E96E000EDD
:102FC000E421EA6EEF502F0803E10501442B0401D0
:102FD000010EE927E9D7010EE96F050144536BE0C3
:102FE000456B0401E951E325E96E000EE421EA6E28
:102FF000EF502F082BE0E951E325E96E000EE421A4
:10300000EA6EEF5205E1FF0E016E0001DDD0040112
:10301000036A05014551EA0F016E040E0322040103
:10302000E951E325E96E000EE421EA6EEFCF48F5A1
:10303000050103C0EAFF01C0E9FF48C5EFFF010E2B
:103040000401E92705014527CCD70401010EE92732
:10305000036A05014551EA0FE96E040E0320EA6E8A
:10306000EF6A040E476FEA0E466F100E486F050EAA
:103070004A6F0A0E496F00012BEC14F0015217E061
:103080000501238FE8C403F00401E7C4E9FFE8C4A5
:10309000EAFF050EE26E0A0EE16E3A0E016EE6CF11
:1030A000EEFF012EFCD7FF0E016E00018DD0010E48
:1030B0000501445F93D70401E951E325E96E000E51
:1030C000E421EA6EEF5215E1E8C403F0E7C4E9FF3A
:1030D000E8C4EAFF050EE26E0A0EE16E3A0E016EDA
:1030E000E6CFEEFF012EFCD7000E016E00016CD082
:1030F00004010501456B0401E951E325E96E000E69
:10310000E421EA6EEF521EE0036A05014551EA0F21
:10311000016E040E03220401E951E325E96E000E5D
:10312000E421EA6EEFCF48F5050103C0EAFF01C0D4
:10313000E9FF48C5EFFF010E0401E9270501452716
:10314000DAD70401036A05014551EA0FE96E040E5E
:103150000320EA6EEF6A040E476FEA0E466F200EF8
:10316000486F050E4A6F0A0E496F00012BEC14F0F0
:10317000015217E00501238FE8C403F00401E7C4FE
:10318000E9FFE8C4EAFF050EE26E0A0EE16E3A0EB0
:10319000016EE6CFEEFF012EFCD7FF0E016E00019F
:1031A00013D0E8C403F00401E7C4E9FFE8C4EAFF70
:1031B000050EE26E0A0EE16E3A0E016EE6CFEEFFEC
:1031C000012EFCD7000E016E000120EF1DF0040E51
:1031D0000501B025E96E000EB121EA6EEFCFB5F51D
:1031E000ECCFB6F5ECCFB7F5ECCFB8F51F0EB517B1
:1031F000B66BB76BB86BB55336E1B65334E1B75322
:1032000032E1B85330E1040EB025E96E000EB12171
:10321000EA6EEFCFBFF5ECCFC0F5ECCFC1F5ECCF48
:10322000C2F51A0EB025016E000EB121036E01C069
:10323000B9F5BA6FC46B200EC36F03C0C6F501C0E9
:10324000C5F5000155EC06F001520EE0190E05011E
:10325000B025E96E000EB121EA6EEF502009EF6E45
:10326000FF0E016E32D0000105011A0EB025E96E85
:10327000000EB121EA6EEFCFB7F5B3C5EAFFB2C5D4
:10328000E9FFB7C5EFFFB46BB45107081CE31A0E92
:10329000B025016E000EB121036E01C0B5F5B66F09
:1032A000200E006E03C0EAFF01C0E9FFEFCF03F07C
:1032B0001F0EE926000EEA220330ED32002EFDD764
:1032C000010EB427E1D7000E016E00019BEF19F04B
:1032D000190E0501AD25E96E000EAE21EA6EEFA0D4
:1032E0007DD0ADC5E9FFAEC5EAFFEFCFB0F5ECCFBD
:1032F000B1F5ECCFB2F5ECCFB3F5B05312E1B15369
:1033000010E1B2530EE1B3530CE1190EAD25E96E95
:10331000000EAE21EA6EEF501009EF6EFF0E016E47
:103320005FD0AEC5B1F5ADC5B0F5050EB36FAF0E4C
:10333000B26F00014CD70150FF0805E1FF0E016E8E
:1033400005014ED000010501AF5314E1190EAD2562
:10335000E96E000EAE21EA6EEFB60CD0190EAD2567
:10336000E96E000EAE21EA6EEF501009EF6EFF0E0F
:10337000016E36D0040EAD25016E000EAE21036E37
:1033800001C0B0F5B16FB36F01C0B2F500014FECF1
:103390000FF0015205E0FF0E016E050121D0000182
:1033A0000501ADC5E9FFAEC5EAFF010EEF5C006E99
:1033B000000EEC58016E000EEC58026E000EEC5838
:1033C000ED52ED52ED5200C0EFFF01C0ECFF02C024
:1033D000ECFFEC6EAFC501F003D002D0FF0E016E22
:1033E000000151EF1AF03AC2EAFF39C2E9FF0501C4
:1033F000AFC5EFFFE92AD8B4EA2AEF6A0201392BF8
:10340000D8B43A2B00011200EF520FE0EACFAEF52C
:10341000E9CFADF5EFCFAFF5E6DFAEC5EAFFADC55D
:10342000E9FFE92AD8B4EA2AEFD71200AFC503F0C2
:103430000501AEC5E9FFAFC5EAFFEF5225E0AFC514
:1034400003F0AE51E96E03C0EAFFEFCFB0F5F250E2
:10345000006EF29EADC5A9FFB0C5A8FFA69CA69EB2
:10346000A6840F01550EA76EAA0EA76EA682A6B25D
:10347000FED7A6940050F2120501AD2BAE2BD8B4A6
:10348000AF2B0001D3D70501000194EF1AF004011E
:10349000E36B0501476BE2C4AEF5E1C4ADF5000195
:1034A00017D701C0ACF50501ACBF2AD0AC5120083C
:1034B00027E2AC517F0824E0050E02013A6F470E67
:1034C000396F3AC2EAFF39C2E9FFEF6A040EEA6EC9
:1034D000E30EE96E000198DFACC5AFF584DF040EA2
:1034E00002013A6FE30E396F3AC2EAFF39C2E9FFCF
:1034F000EF6A050EEA6E470EE96E000185DF0501F1
:10350000AC51FF08C8E1040EAE6FE30EAD6F0001D1
:103510002FEC08F001C0ABF5040E0501AD6FAF6FE5
:10352000E30EAE6F000182D7F250006EF29EA00E45
:10353000A96EABC5A8FFA69CA69EA6840F01550E3A
:10354000A76EAA0EA76EA682A6B2FED7A6940050BA
:10355000F21200012AEF1DF0190E0401E825E96EB0
:10356000000EE921EA6EEFB208D0190EE825E96EE7
:10357000000EE921EA6EEFA4B8D0040EE825E96E4A
:10358000000EE921EA6EEFCFEAF4ECCFEBF4ECCFDA
:10359000ECF4ECCFEDF41F0EEA17EB6BEC6BED6B7C
:1035A000EA5348E1EB5346E1EC5344E1ED5342E189
:1035B000040EE825E96E000EE921EA6EEFCFEAF489
:1035C000ECCFEBF4ECCFECF4ECCFEDF4200EEA5FB3
:1035D000000EEB5BEC5BED5B1A0EE825016E000E56
:1035E000E921036E01C0EEF4EF6FEDC4C9F5ECC440
:1035F000C8F5EBC4C7F5EAC4C6F50501CB6B200ED0
:10360000CA6F03C0CDF501C0CCF500017AEC0CF017
:1036100001520EE0190E0401E825E96E000EE921C1
:10362000EA6EEF504009EF6EFF0E016E60D00001B0
:1036300057D00401040EE825E96E000EE921EA6E78
:10364000EFCFEAF4ECCFEBF4ECCFECF4ECCFEDF40D
:10365000040EE825E96E000EE921EA6EEFCFEEF4E4
:10366000ECCFEFF4ECCFF0F4ECCFF1F4EE511F0B14
:10367000006E016A026A036A0050EA5F0150EB5B68
:103680000250EC5B0350ED5B1A0EE825016E000E54
:10369000E921036E01C0EEF4EF6FEDC4C9F5ECC48F
:1036A000C8F5EBC4C7F5EAC4C6F50501CB6B200E1F
:1036B000CA6F03C0CDF501C0CCF500017AEC0CF067
:1036C00001520EE0190E0401E825E96E000EE92111
:1036D000EA6EEF504009EF6EFF0E016E08D0000158
:1036E000CAEC05F00150040102D0000E016E000189
:1036F000BDEF1CF00401E36B190EE125E96E000E2D
:10370000E221EA6EEFB208D0190EE125E96E000E53
:10371000E221EA6EEFA438D1080EE125E96E000E31
:10372000E221EA6EEFCFE8F4ECCFE9F4ECCFEAF473
:10373000ECCFEBF41C0EE827000EE923EA23EB2381
:10374000100EE125016E000EE221036E01C0ECF4C3
:10375000ED6FEBC4C9F5EAC4C8F5E9C4C7F5E8C420
:10376000C6F50501CB6B040ECA6F03C0CDF501C0D1
:10377000CCF500017AEC0CF001520EE0190E0401B8
:10378000E125E96E000EE221EA6EEF504009EF6E8E
:10379000FF0E016E40D10001080E0401E125E96E23
:1037A000000EE221EA6EEFCFE8F4ECCFE9F4ECCFC3
:1037B000EAF4ECCFEBF4140EE827000EE923EA2339
:1037C000EB23EBC4C2F5EAC4C1F5E9C4C0F5E8C413
:1037D000BFF50501C46B020EC36F040EC66FE60E83
:1037E000C56F000155EC06F001500401E327080EF7
:1037F000E125E96E000EE221EA6EEFCFE8F4ECCFAE
:10380000E9F4ECCFEAF4ECCFEBF41A0EE827000E63
:10381000E923EA23EB23EBC4C2F5EAC4C1F5E9C40A
:10382000C0F5E8C4BFF50501C46B020EC36F040EFA
:10383000C66FE40EC56F000155EC06F0015004019F
:10384000E327E3530CE0190EE125E96E000EE221B7
:10385000EA6EEF502009EF6EFF0E016EDCD0E453EC
:10386000D8A485D0E553D8A482D0E653D8A47FD07D
:10387000E753D8A47CD0140EE125E96E000EE221B6
:10388000EA6EEFCFBCF5ECCFBDF5ECCFBEF5ECCFDB
:10389000BFF5000133EC09F003C0E7F402C0E6F421
:1038A00001C0E5F400C0E4F4080E0401E125E96E6E
:1038B000000EE221EA6EEFCFE8F4ECCFE9F4ECCFB2
:1038C000EAF4ECCFEBF4140EE827000EE923EA2328
:1038D000EB23EBC4C9F5EAC4C8F5E9C4C7F5E8C4ED
:1038E000C6F50501CB6B020ECA6F040ECD6FE60E56
:1038F000CC6F00017AEC0CF001500401E327080EB4
:10390000E125E96E000EE221EA6EEFCFE8F4ECCF9C
:10391000E9F4ECCFEAF4ECCFEBF41A0EE827000E52
:10392000E923EA23EB23EBC4C9F5EAC4C8F5E9C4EB
:10393000C7F5E8C4C6F50501CB6B020ECA6F040ECD
:10394000CD6FE40ECC6F00017AEC0CF00150040155
:10395000E327E3530CE0190EE125E96E000EE221A6
:10396000EA6EEF504009EF6EFF0E016E54D0E2C4D4
:10397000E9F4E1C4E8F40001EFD50150FF0805E1E6
:10398000FF0E016E040147D00001040E0401E12581
:10399000E96E000EE221EA6EEE52EE52EC6AED5252
:1039A000EF6AED52EF6AED52EF6A080EE125E96E1B
:1039B000000EE221EA6EEE52EE52EC6AED52EF6A30
:1039C000ED52EF6AED52EF6A100EE125E96E000E3E
:1039D000E221EA6EEE52EE52EC6AED52EF6AED52DF
:1039E000EF6AED52EF6A140EE125E96E000EE22156
:1039F000EA6EEE52EE52EC6AED52EF6AED52EF6A69
:103A0000ED52EF6A190EE125E96E000EE221EA6E31
:103A1000EF6A000E016E00011200720E0401DF6FEA
:103A2000E06BA4C4E4F4A3C4E3F4040EE66FDF0E79
:103A3000E56F040EE86FA50EE76F000193EF17F036
:103A4000015201E017D0040E0401E26FA50EE16FF0
:103A500000011DD5040E0401E26FA50EE16F000107
:103A600049DE040E0401E26FA50EE16F000142DEA3
:103A7000015200E08FEF36F00401A66BA56BA45154
:103A8000A55D20E2A551A125A86FF2CFA9F4F29E71
:103A9000A8C4A9FFA69CA69EA680A850A9BFF28E86
:103AA000A76FA75120080CE2A7517E0809E3A65191
:103AB000A225E96E000EA321EA6EA7C4EFFFA62B94
:103AC000A52BDDD7A651A225E96E000EA321EA6E33
:103AD000EF6A0001A9EF36F00900F6CFC6F4F7CF80
:103AE000C7F4F5CFCBF456EC02F0C6C4F6FFC7C45A
:103AF000F7FF0401C52F01D002D00001EDD700016E
:103B00001200EF5210E0EACFA2F4E9CFA1F4EFCF18
:103B1000CBF456EC02F0A2C4EAFFA1C4E9FFE92A03
:103B2000D8B4EA2AEED712000900F5520DE0F6CF1C
:103B3000A4F4F7CFA5F4F5509EA8FED7AD6EA4C4AB
:103B4000F6FFA5C4F7FFF0D71200AFC4B3F4AEC4BC
:103B5000B2F4B3C403F00401B2C4E9FFB3C4EAFF92
:103B6000EF5230E0B1C4B5F4B0C4B4F4B5C403F05E
:103B7000B4C4E9FFB5C4EAFFEF520AE1AE51B25D49
:103B8000006EAF51B359036E00C001F023D010D0C6
:103B9000B2C4E9FFB3C4EAFFEFCFB6F4B5C403F093
:103BA000B4C4E9FFB5C4EAFFEF50B65D01E104D04B
:103BB000B42BD8B4B52BDAD7B22BD8B4B32B0001C1
:103BC000C8D70401AE51B25D006EAF51B359036E58
:103BD00000C001F0000142EF1EF0AFC4B3F4AEC468
:103BE000B2F4B3C403F00401B2C4E9FFB3C4EAFF02
:103BF000EF522AE0B1C4B5F4B0C4B4F4B5C403F0D4
:103C0000B4C4E9FFB5C4EAFFEF5218E0B2C4E9FF5B
:103C1000B3C4EAFFEFCFB6F4B5C403F0B4C4E9FF10
:103C2000B5C4EAFFEF50B65D05E1B2C401F0B3C41C
:103C300002F00DD0B42BD8B4B52BE0D7B22BD8B44A
:103C4000B32B0001CED70401000E016E026E0001FD
:103C50005DEF1EF00401A651A71104E0A7C403F014
:103C6000A65103D01BC003F01A50AA6F03C0ABF4D7
:103C7000ABC4AFF4AAC4AEF4A9C4B1F4A8C4B0F400
:103C8000000163D701500401AA27000EAB23ABC487
:103C900003F0AAC4E9FFABC4EAFFEF5204E1000E4F
:103CA000016E026E32D0ABC4AFF4AAC4AEF4A9C4A4
:103CB000B1F4A8C4B0F4000190D702C0ADF401C0C3
:103CC000ACF40401AC5302E1AD530DE0ACC4E9FF28
:103CD000ADC4EAFFEF6AAC2BD8B4AD2BADC41BF07A
:103CE000ACC41AF00ED0ABC4AEF5AAC4ADF5000159
:103CF0002FEC08F001500401AA251A6E0250AB21E6
:103D00001B6EAAC401F0ABC402F000011200006AED
:103D1000016A0401AD51D890AEB1002600320132E3
:103D2000AEB3002600320132AEB5002600320132B9
:103D3000AEB7002600320132AEB9002600320132A1
:103D4000AEBB002600320132AEBD00260032013289
:103D5000AEBF002600320132000117EF1FF0040150
:103D6000AB6BA96B0A0EAA6FA86BA651A71103E152
:103D7000000E016EBBD0AB51AB2BA625E96E000E39
:103D8000A721EA6EEFCFACF4AC512D080CE1010E87
:103D9000A96FAB51AB2BA625E96E000EA721EA6EE9
:103DA000EFCFACF40CD0AC512B0809E1AB51AB2BED
:103DB000A625E96E000EA721EA6EEFCFACF4AC5158
:103DC0002F08D8B08BD0AC513908D8A087D0AC51CF
:103DD00030081EE1AB51A625E96E000EA721EA6E60
:103DE000EF50780809E0AB51A625E96E000EA72137
:103DF000EA6EEF5058080CE1100EAA6FAB2BAB51D6
:103E0000AB2BA625E96E000EA721EA6EEFCFACF42E
:103E1000AA510A081CE1AC512F0818E2AC5139082C
:103E200015E30A0EAD6FA8C4AEF4000170D7300ED2
:103E30000401AC5D0124A86FAB51AB2BA625E96E44
:103E4000000EA721EA6EEFCFACF4E5D747D0AA5118
:103E5000100844E1AC51600806E2AC517A0803E373
:103E6000AC51DF0B01D0AC51AC6FAC512F0803E269
:103E7000AC51390806E2AC51400830E2AC5146087A
:103E80002DE3AC512F080CE2AC51390809E3A839F5
:103E9000AD6FF00EAD17300EAC5DAD25A86F09D03B
:103EA000A839AD6FF00EAD17410EAC5D0A0FAD2510
:103EB000A86FAB51AB2BA625E96E000EA721EA6EC9
:103EC000EFCFACF4AC51600806E2AC517A0803E3E2
:103ED000AC51DF0B01D0AC51AC6FC7D7A92D04D0CA
:103EE000AA510A0801E1A86DA8C401F0000112005E
:103EF0000401CC51016ACB5D03E2CBC400F00CD0CD
:103F0000006A080ECD6FCB370036CC51005CD8B0BC
:103F1000006E0136CD2FF7D7000112000150A4C466
:103F2000CBF4640E0401CC6F0001E2DF00C0A4F406
:103F30000150300E08E10401A5A310D0A5B70ED0A2
:103F4000A5B9200E04D00401A597A599A581012645
:103F500001C0CBF4000156EC02F00401A4C4CBF480
:103F60000A0ECC6F0001C4DF00C0A4F40150300E73
:103F700008E10401A5B70BD0A5A109D0A5B9200E71
:103F80000001012601C0CBF456EC02F00401300E12
:103F9000A427A4C4CBF4000156EC02F01200080ED2
:103FA000016E00D000D000008A96939600D000D019
:103FB00000D00401AB378996D8B09286D8A09296EB
:103FC000938681A6FED7012E01D002D00001E9D749
:103FD00000D000D000008A9693960000928600D010
:103FE00000D000D000D000D000D0938681A6FED7AC
:103FF000016A00D000D000D080B601808A969396E6
:104000008996929600011200AAC4CBF40A0E04010C
:10401000CC6F00016DDF01380401AB6FF00EAB1700
:10402000AAC4CBF40A0ECC6F000162DF0050040179
:10403000AB25016E00011200928600D000D0000076
:10404000938600D000D000D08996929600D000D000
:1040500000008A969396D00E0401AB6F00019FDF9B
:104060000401AB6B00019BDFA9C4AAF4CDDF01C042
:10407000AAF401C0ABF493DFA8C4AAF4C5DF01C061
:10408000AAF401C0ABF48BDFA7C4AAF4BDDF01C062
:10409000AAF401C0ABF483DF010E0401AB6F000191
:1040A0007EDFA4C4AAF4B0DF01C0AAF401C0ABF45F
:1040B00076DFA5C4AAF4A8DF01C0AAF401C0ABF45E
:1040C0006EDFA6C4AAF4A0DF01C0AAF401C0ABF45D
:1040D00066DF92960000938681A6FED700D000D0BE
:1040E000000000D00000928600D000D000005BEFFE
:1040F00021F08A0EF66E030EF76E16DD02014D6B8F
:10410000466B456B4D5307E14651020804E3FAE163
:1041100045515808F7E24D2DD0D04D6B030E0301E9
:10412000406F040E3F6F0401A46FAF0EBA6F000121
:1041300041EC02F00401A42FF8D73B0EA26FA36B51
:1041400040C3A7F43FC3A6F4040EA96FA20EA86F44
:10415000000180DD02C042F301C041F30301476B5F
:10416000415302E1425329E0036A47519C0F016E1B
:10417000030E032201C0A4F403C0A5F442C3A7F4B4
:1041800041C3A6F40001EBDDA5C4EAFFA4C4E9FF26
:1041900001C0EFFF3B0E0401A26FA36BA76BA66BE0
:1041A000040EA96FA20EA86F000154DD02C042F3F5
:1041B00001C041F30301472BD3D7A1C362F2A0C3CF
:1041C00063F29FC364F29EC365F29DC366F29CC313
:1041D00067F265C2A4F41B0E0401A56F00019EDE08
:1041E0002D0E0401CB6F000156EC02F066C2A4F460
:1041F0001B0E0401A56F000191DE2D0E0401CB6F93
:10420000000156EC02F067C2A4F41B0E0401A56F76
:10421000000184DE2D0E0401CB6F000156EC02F08C
:1042200064C2A4F41B0E0401A56F000177DE2D0EFD
:104230000401CB6F000156EC02F063C2A4F41B0E24
:104240000401A56F00016ADE2D0E0401CB6F000191
:1042500056EC02F062C2A4F41B0E0401A56F00012B
:104260005DDE200E0401CB6F000156EC02F00A0E59
:104270000401CB6F000156EC02F0020166510C08FC
:104280000CE265511F0809E26451170806E2635108
:104290003B0803E262513B080FE365C2A4F466C227
:1042A000A5F467C2A6F464C2A7F463C2A8F462C20C
:1042B000A9F40001C1D6020109D0920EF66E030ED8
:1042C000F76E0001F4EC07F002014B2B0001120025
:1042D000080E0401A26F00C0A3F4928600D000D0A3
:1042E00000D0938681A6FED780B6D88080A6D890CD
:1042F000013600D000D0000093968A96A22FEDD709
:10430000928600D000D000D08996A351D8A492966E
:104310000000938681A6FED700D000D000008A96C8
:10432000939600D000D000D089969296000112009A
:104330000401A239006E0F0E001600500A0DF3CFD3
:10434000A3F4A2510F0BA325016E00011200928667
:1043500000D000D00000938600D000D000D0899615
:10436000929600D000D000008A969396D00E040159
:10437000AB6F000114DE0401AB6B000110DE9296FE
:104380000000938681A6FED700D000D0000000D0A8
:104390000000928600D000D00000928600D000D0AD
:1043A0000000938600D000D000D08996929600D06D
:1043B00000D000008A969396D10E0401AB6F0001E5
:1043C000EEDD010E006E84DF01C0A1F401C0A2F495
:1043D000AFDF01C062F2010E006E7ADF01C0A1F40E
:1043E00001C0A2F4A5DF01C063F2010E006E70DF10
:1043F00001C0A1F401C0A2F49BDF01C064F2010E70
:10440000006E66DF010E006E63DF01C0A1F401C023
:10441000A2F48EDF01C065F2010E006E59DF01C00B
:10442000A1F401C0A2F484DF01C066F2010E006EA7
:104430004FDF01C0A1F401C0A2F47ADF01C067F22E
:1044400092960000938681A6FED700D000D000008F
:1044500000D00000928600D000D00000928600D0EC
:1044600000D00000938600D000D000D089969296AC
:1044700000D000D000008A969396D10E0401AB6F55
:1044800000018DDD010E006E23DF92960000938601
:1044900081A6FED700D000D0000000D00000928698
:1044A00000D000D0000012008E0E006ECAC401F0D1
:1044B000C9C402F0036A015209E102C001F0026AB4
:1044C000080E005E015202E1006A08D0D89001BED9
:1044D00004D0023601360006F9D7019E120004010D
:1044E000C951D8B471D0006ECD51D8B46DD000266A
:1044F00004E3810E002668E204D07F0E005E64E3D0
:1045000063E0CAC4D1F4CE51D11BCA8FCE8FCC5137
:10451000D003F4CFD3F4CB51CF03F4CF03F0F3CFD8
:10452000D2F4D003F350D327F450D223000E032249
:10453000CC51CF03F350D327F450D223000E026A9C
:1045400003220222CA51D003F350D227F45003228F
:10455000000E0222CA51CF03F3500326F450022268
:10456000000E016A0122CC51CE03F350D227F45041
:104570000322000E02220122CB51CE03F350032668
:10458000F4500222000E0122CA51CE03F35002263B
:10459000F4500122002A01BE05D0D237033602367C
:1045A00001360006000ED2AF0AD0032A02220122F1
:1045B000015005E1025003E1035001E1002AD1BF9F
:1045C000018ED1AF019E04D0006A016A026A036ABB
:1045D000000112000401C951D8B4A5D0D56FCD5146
:1045E000D8B4A1D0D55F05E37F0ED527D8B09BD036
:1045F00006D0810ED55FD8A096D0D8B494D0D5C4BB
:1046000000F0016A026A036AD46BCAC4D3F4D38F80
:10461000CBC4D2F4CCC4D1F4190ED56FD051D15F34
:104620000DE2010ED25F0AE2D35F08E2D45F06E238
:10463000D42BD32BD22BD051D12728D0CF51D25F1E
:1046400012E2010ED35F0FE2D45F0DE2D42BD32B25
:10465000CF51D227D051D12719E3D22B17E1D32B39
:1046600015E1D42B13D0CE518009D35F0EE2010E99
:10467000D45F0BE2D42BCE518009D327CF51D22760
:10468000E9E3D32BE7E1D42BE5D70380D52F01D085
:104690000BD0D890D137D237D337D437D890033610
:1046A00002360136D637BAD7D6A106D0D890013215
:1046B00002320332D63302D0000635E0D6BF1ED018
:1046C000D890D137D237D337D437D051D15F07E222
:1046D000010ED25F04E2D35F02E2D45F1AE3CF514E
:1046E000D25F05E2010ED35F02E2D45F12E3CE5146
:1046F0008009D35F03E2010ED45F0BE3032A09E1D3
:10470000022A07E1012A05E1002A0DE00132023206
:104710000332CAC4D5F4CE51D51BD5AF02D0018E19
:1047200006D0019E04D0006A016A026A036A000191
:104730001200000E016EC250C30B0110C26EC28285
:10474000C2B2FED7C4CFCAF4C3CFC9F40001ACDEF5
:1047500003C03EF202C03DF201C03CF200C03BF299
:104760003EC2CCF43DC2CBF43CC2CAF43BC2C9F455
:104770000401D06BCF6B200ECE6F810ECD6F000188
:10478000AEDE03C0A4F402C0A3F401C0A2F400C0D2
:10479000A1F403C0CCF402C0CBF401C0CAF400C041
:1047A000C9F40401D06B400ECF6F1C0ECE6F8D0E7E
:1047B000CD6F00010FDF03C0A4F402C0A3F401C059
:1047C000A2F400C0A1F403C0CCF402C0CBF401C039
:1047D000CAF400C0C9F40401D06BCF6B6E0ECE6F6B
:1047E000850ECD6F00017BDE03C03EF202C03DF2BC
:1047F00001C03CF200C03BF2DBEF36F0B5C4BCF4C4
:104800000401B951BC1BBCAF05D0D894D890B5BF3A
:10481000D8802FD0B5C4BCF4B8C4BDF4B451BD5FCA
:1048200006E0BCAF26D0D850010AD86E22D0B9C459
:10483000BDF4B551BD5F06E0BCAF1BD0D850010A36
:10484000D86E17D0BAC4BDF4B651BD5F06E0BCAF98
:1048500010D0D850010AD86E0CD0BBC4BDF4B751EB
:10486000BD5F06E0BCAF05D0D850010AD86E01D0BC
:10487000D8900001120095988C98080E016E00D017
:104880000000018E10D0019E0401CF330001D8B08A
:104890008C88D8A08C98018C06D0019C012EF4D76E
:1048A00000D000008C88010E006EE96AE92EFED768
:1048B000002EFBD7990EE96EE92EFED7000001BE4F
:1048C000E2D701BCEAD71200040E0401C56F030E43
:1048D000C66FC76B060EC86FC96B010ECA6F640E38
:1048E000CB6F5E0ECC6FCD6BCD5107080EE3036A24
:1048F000CD51C50FE96E040E0320EA6EEFCFCFF461
:104900000001B9DF0401CD2BEFD7000150EF28F0F3
:10491000030E0401C56FC66FC76B060EC86FC96B67
:10492000010ECA6F650ECB6FE90ECC6FCD6BCD510A
:1049300007080EE3036ACD51C50FE96E040E03208C
:10494000EA6EEFCFCFF4000196DF0401CD2BEFD755
:1049500000015AEF28F0020E0401C56F030EC66F66
:10496000C76B060EC86FC96B010ECA6F640ECB6FA2
:10497000380ECC6FCD6BCD5107080EE3036ACD51D5
:10498000C50FE96E040E0320EA6EEFCFCFF40001ED
:1049900072DF0401CD2BEFD7000165EF28F0010E87
:1049A0000401C56F030EC66FC76B040EC86FC96BD9
:1049B000020ECA6F850ECB6FCA0ECC6FCD6BCD5178
:1049C00007080EE3036ACD51C50FE96E040E0320FC
:1049D000EA6EEFCFCFF400014EDF0401CD2BEFD70D
:1049E000000190EF28F0010E0401C56F030EC66FA1
:1049F000C76B090EC86FC96B020ECA6F140ECB6F5E
:104A0000090ECC6FCD6BCD5107080EE3036ACD5173
:104A1000C50FE96E040E0320EA6EEFCFCFF400015C
:104A20002ADF0401CD2BEFD7000190EF28F0010E13
:104A30000401C56F030EC66FC76B080EC86FC96B44
:104A4000020ECA6F450ECB6FC90ECC6FCD6BCD5128
:104A500007080EE3036ACD51C50FE96E040E03206B
:104A6000EA6EEFCFCFF4000106DF0401CD2BEFD7C4
:104A7000000190EF28F0010E0401C56F030EC66F10
:104A8000C76B0C0EC86FC96B020ECA6F040ECB6FDA
:104A9000080ECC6FCD6BCD5107080EE3036ACD51E4
:104AA000C50FE96E040E0320EA6EEFCFCFF40001CC
:104AB000E2DE0401CD2BEFD7000190EF28F09598AE
:104AC0008C98080E016E00D00000018E10D0019E5F
:104AD0000401CF330001D8B08C88D8A08C98018C09
:104AE00006D0019C012EF4D700D000008C88030E64
:104AF000006EE96AE92EFED7002EFBD7370EE96E6D
:104B0000E92EFED700D0000001BEE1D701BCE9D7F5
:104B1000A7EF25F0010E0401C56F030EC66FC76B2A
:104B2000C86BC96B020ECA6FC40ECB6F0B0ECC6F75
:104B3000CD6BCD5107080EE3036ACD51C50FE96E69
:104B4000040E0320EA6EEFCFCFF40001B8D70401C2
:104B5000CD2BEFD7000190EF28F0958A83BAFED7CE
:104B6000080E006E0401CE6B008E0ED0009E0CD09D
:104B7000D89083BAD880CE33008C06D0009C002E0B
:104B8000F7D7CEC401F015D0010EE96E000E00BEBD
:104B9000550E016E012EFED7E92EF8D7980E00BEF5
:104BA000290E016E012EFED700BEE0D700BCE6D76D
:104BB000DFD700010BEF26F00401C86B0201426B46
:104BC000416B83AA06D0425304E14151630801E3DB
:104BD000F8D7425333E14151630830E30401C96B14
:104BE000C751C95D23E20201425303E14151640808
:104BF00005E2020E0401C86F19D002010401C95177
:104C0000C525E96E000EC621EA6EEACFCDF4E9CFE4
:104C1000CCF40001A2D7CDC4EAFFCCC4E9FF01C0A7
:104C2000EFFF010E0401C86FC92BDAD7C751C525A4
:104C3000E96E000EC621EA6EEF6A02010401C8C4E3
:104C400001F000011200958A83BAFED7080E006EAB
:104C50000401CE6B008E0ED0009E0CD0D89083BA8B
:104C6000D880CE33008C06D0009C002EF7D7CEC45F
:104C700001F016D0030EE96E000E00BE550E016E57
:104C8000012EFED7E92EF8D7340E00BE0E0E016EAF
:104C9000012EFED700D000BEDFD700BCE5D7DED79F
:104CA000000182EF26F00401C86B0201426B416BE8
:104CB00083AA06D0425304E14151630801E3F8D7C7
:104CC000425333E14151630830E30401C96BC751DA
:104CD000C95D23E20201425303E14151640805E248
:104CE000020E0401C86F19D002010401C951C52583
:104CF000E96E000EC621EA6EEACFCDF4E9CFCCF41E
:104D00000001A1D7CDC4EAFFCCC4E9FF01C0EFFF89
:104D1000010E0401C86FC92BDAD7C751C525E96E4A
:104D2000000EC621EA6EEF6A02010401C8C401F058
:104D30000001A8EF28F0800ED8A202D00401CC1BFD
:104D40000401D16BD26BC8C4D0F4CC51D01BC75175
:104D5000D8B4DFD0CF6F006ECB51D8B4E3D0CF5FE3
:104D6000D8B483D03EE3CCC4D5F4D58FCDC4D4F42D
:104D7000CEC4D3F4D26BD890D533D433D333D2331B
:104D8000CF2FF8D7D0AF03D0D181E0D0D191CF9140
:104D9000D189040EEA6ECA0EE96EEBD0D199D0BF6C
:104DA0000AD0CFA113D0D533D433D333D233002A92
:104DB000D8B4C7D00BD0D5BF0CD0D890D237D3370A
:104DC000D437D5370006D8B4BCD0F5D7D18D6DD047
:104DD000D19DC8C4D0F4C8AF02D0D58FABD0D59F79
:104DE000A9D0CBC4CFF4CBC400F0C751CF5FC8C4A7
:104DF000D5F4D58FC9C4D4F4CAC4D3F4D26BD89037
:104E0000D533D433D333D233CF2FF8D7D0AF03D069
:104E1000D1839CD0D193CF91D18B040EEA6ECE0E6C
:104E2000E96EA7D0D19BD0BF0AD0CFA113D0D53384
:104E3000D433D333D233002AD8B483D00BD0D5BFE8
:104E40000CD0D890D237D337D437D5370006D8B462
:104E500078D0F5D7D18F29D0D19FCCC4D0F4CCAFA6
:104E600002D0D58F67D0D59F65D0CCC4D5F4D58F6F
:104E7000CDC4D4F4CEC4D3F4D0AF04D0D59FD18563
:104E800065D0D195D26BCF91040EEA6ECA0EE96E51
:104E900070D0D0BF1CD0C8C4D0F4CFA106D0D533B9
:104EA000D433D333D233002A4CE0D2AF0BD0D32B40
:104EB00009E1D42B07E1D52B05E1D533D433D33326
:104EC000002A3FE0D1BD84D7D1BFC6D71CD0800E09
:104ED000D51BD5AF04D03AD0CCC4D0F40AD0C8C4C6
:104EE000D0F4D55306E1D45304E1D35302E1006A70
:104EF00021D0D5BF08D0D890D237D337D437D537C3
:104F0000002EF7D71ED0D0AF02D0D58F13D0D59FAB
:104F100011D0CBC400F0CCC4D5F4CDC4D4F4CEC4ED
:104F2000D3F408D0C7C400F0C8C4D5F4C9C4D4F4BD
:104F3000CAC4D3F4D5C401F0D4C402F0D3C403F07E
:104F400034D0006A016A026A036A2FD0D26BD31F81
:104F5000D41FD51FD21FD22B05E1D32B03E1D42BB5
:104F600001E1D52BD1B112D7D1B354D7D1B589D75F
:104F7000B3D7EF50D32705E3D42B03E1D52BD8B417
:104F8000CF81ED52EF50D42703E3D52BD8B4CF8196
:104F9000ED52EF50EFBE01D0800AD527D8B0CF81B7
:104FA000D1B9FCD6D1BB3ED774D700011200200E78
:104FB0000401C6A9300EC76FC5C400F0C5AF08D044
:104FC000001E002A00C0C5F42D0EC76FC68FC68113
:104FD0000150C5C4CBF4640ECC6F000178EC1FF017
:104FE00000C0C5F4300E01240401C86FC5C4CBF461
:104FF0000A0ECC6F000178EC1FF0300E0024040183
:10500000CA6F300E0124C96FC7C400F0300EC85DEE
:1050100004E0C683C6BFC68512D0C7C4C8F4200E3C
:10502000C76F300EC95D04E0C681C6BFC68307D016
:10503000D8A4C68104E1C8C4C9F4200EC86FC6B59F
:1050400005D0C6B308D0C6B10BD00FD0C7C4CBF4BF
:10505000000156EC02F0C8C4CBF4000156EC02F09B
:10506000C9C4CBF4000156EC02F0CAC4CBF4000171
:1050700056EC02F012000401B56BB76BB66BB86B5F
:10508000BC6BBB6BBA6BB96BC06BBF6BBE6BBD6BE4
:10509000C46BC36BC26BC16BB45308E1000114D481
:1050A0000B0E0401B76F290EB66F3BD0B42D08D09C
:1050B00000012ED4080E0401B76F020EB66F31D076
:1050C000B451020808E1000146D4040E0401B76F90
:1050D000E20EB66F26D0B451030805E100015FD49B
:1050E00000011ED00401B451040805E100017BD485
:1050F000000116D00401B451050805E1000197D460
:1051000000010ED00401B451060805E10001B3D43A
:10511000000106D00401B451070803E10001FAD4EC
:105120000401B45107080CE0040EC66F800EC56F71
:10513000070EC76F000140DD01C0B8F40BD00401B9
:10514000040EC66F800EC56F070EC76F0001ABD58A
:1051500001C0B8F40401B82D1ED1036AB451520F36
:10516000E96E020E0320EA6EEF50805DD8A413D1E1
:10517000036AB4515A0FE96E020E0320EA6EEF5033
:10518000815DD8A408D1B86B8339006E0F0E00166C
:1051900000C0C7F4CB6B00C0CAF4100ECD6FCC6B4F
:1051A000000199EC06F002C0C7F401C0C6F4040186
:1051B00083510F0BC96FCB6BCA6F010ECD6FCC6BD8
:1051C000000199EC06F002C003F001500401C6256D
:1051D000016EC751032201C0C9F403C0CAF4000123
:1051E00054EC22F003C0C0F402C0BFF401C0BEF40E
:1051F00000C0BDF404018439006E0F0E001600508B
:10520000100DF3CFC6F484510F0BC625CA6BC96FBE
:10521000000154EC22F003C0C4F402C0C3F401C086
:10522000C2F400C0C1F40401B451020857E3D8929B
:10523000C0C4CAF4BFC4C9F4BEC4C8F4BDC4C7F472
:10524000C4C4CEF4C3C4CDF4C2C4CCF4C1C4CBF442
:10525000000171DD03C0C8F402C0C7F401C0C6F488
:1052600000C0C5F4B7C4CAF4B6C4C9F454EC22F003
:10527000C8C4CCF4C7C4CBF4C6C4CAF4C5C4C9F40A
:1052800003C0D0F402C0CFF401C0CEF400C0CDF40E
:105290006FEC22F003C0C8F402C0C7F401C0C6F42A
:1052A00000C0C5F403C0CCF402C0CBF401C0CAF402
:1052B00000C0C9F40401D06BCF6B480ECE6F850ED1
:1052C000CD6F0001EAEC22F003C0BCF402C0BBF4D5
:1052D00001C0BAF400C0B9F45CD00401B4510208B2
:1052E00059E2B451070856E3B45106081DE0D892BC
:1052F000C0C4CAF4BFC4C9F4BEC4C8F4BDC4C7F4B2
:10530000C4C4CEF4C3C4CDF4C2C4CCF4C1C4CBF481
:10531000000111DD03C0BCF402C0BBF401C0BAF44B
:1053200000C0B9F436D00401D892C0C4CAF4BFC4D6
:10533000C9F4BEC4C8F4BDC4C7F4C4C4CEF4C3C465
:10534000CDF4C2C4CCF4C1C4CBF40001F4DC03C07E
:10535000C8F402C0C7F401C0C6F400C0C5F403C05D
:10536000CCF402C0CBF401C0CAF400C0C9F40401FB
:10537000D06BCF6B200ECE6F820ECD6F0001EAECAA
:1053800022F003C0BCF402C0BBF401C0BAF400C0F8
:10539000B9F4040121D0B52BB551020802E36DD652
:1053A0001BD05E0EF66E030EF76E0D0EC56F00017C
:1053B0006CEC1DF0B4C4C5F4180E0401C66F0001F6
:1053C000F6DD6D0EF66E030EF76E050E0401C56F69
:1053D00000016CEC1DF00401B9C400F0BAC401F086
:1053E000BBC402F0BCC403F000011200016A026AEF
:1053F000006A036A0401C25102E1C15118E0100EB3
:10540000C36FD890BF37C03700360336C251035C34
:1054100002E1C151005C07E3C151005ED8A0030660
:10542000C251035ED88001360236C32FEAD700018D
:1054300012001FC0CDF51EC0CCF51DC0CBF51CC0A1
:10544000CAF5410E0501D16FC60ED06F4E0ECF6F5B
:105450006D0ECE6F0001AAEC06F0390E0401002497
:105460001C6E300E01201D6E000E02201E6E000EFE
:1054700003201F6E1EC000F01FC001F0026A036A05
:105480001FC0BEF41EC0BDF41FC0C0F41EC0BFF4D8
:105490007F0EC26FC1690001A9DF00C001F003C027
:1054A00002F06EEF2AF0D882B7C4CAF4B6C4C9F4C9
:1054B000B5C4C8F4B4C4C7F4B3C4CEF4B2C4CDF414
:1054C000B1C4CCF4B0C4CBF436DC03C0BBF402C02E
:1054D000BAF401C0B9F400C0B8F4ABD702C0CAF442
:1054E00001C0C9F4000154EC22F0BBC4CCF4BAC42E
:1054F000CBF4B9C4CAF4B8C4C9F403C0D0F402C030
:10550000CFF401C0CEF400C0CDF46FEC22F003C0A4
:10551000BBF402C0BAF401C0B9F400C0B8F403C0CF
:10552000CCF402C0CBF401C0CAF400C0C9F4040139
:10553000D06BFE0ECF6F7F0ECE6F8D0ECD6F000144
:10554000EAEC22F0EACFB9F4E9CFB8F4D892B3C4C8
:10555000CAF4B2C4C9F4B1C4C8F4B0C4C7F403C037
:10556000CEF402C0CDF401C0CCF400C0CBF49BEC6F
:1055700026F0B9C4EAFFB8C4E9FF12000401BD5126
:10558000B608BD6F036ABEC4C1F4BE8FD890BE33E7
:10559000BF33C0330332023201320032BD2FF6D79F
:1055A000C1AF0BD0001E011E021E031E002AD8B47C
:1055B000012AD8B4022AD8B4032A00010CEF2BF038
:1055C000E9500401B56FB451B76F1CE0B3C4CCF41B
:1055D000B2C4CBF4B1C4CAF4B0C4C9F4D06BCF6BBD
:1055E000200ECE6F820ECD6F00016FEC22F003C053
:1055F000B3F402C0B2F401C0B1F400C0B0F40401CD
:10560000B72FE4D7B3C4C0F4B2C4BFF4B1C4BEF47E
:10561000B0C4BDF40001B2D703C0B3F402C0B2F409
:1056200001C0B1F400C0B0F40401B3AF0DD0B507B0
:10563000B58BB01FB11FB21FB31FB02BD8B4B12BA5
:10564000D8B4B22BD8B4B32B3B0EBC6F9A0EBB6F41
:10565000CA0EBA6FB96B0A0EB76FB451D8B4B52B76
:10566000D882040EEA6EB00EE96EB3C4C7F5B2C4B8
:10567000C6F5B1C4C5F5B0C4C4F5BCC4CBF5BBC454
:10568000CAF5BAC4C9F5B9C4C8F50001E9EC08F017
:105690000150005213E10401B429B75DD8A402D02F
:1056A00000010CD0B5510DE00F0BB75D01E047E2F2
:1056B000B5BF45D0B5BD05D0200E3AD0200E0401AF
:1056C000B517B5AB10D0B59BB451D8A4B5070050F1
:1056D000B56F2D0E0501AF6F0001F3EC19F0040159
:1056E000B551006EB56BB451B75D0EE10050B56FAA
:1056F0002E0E0501AF6F0001F3EC19F00401B55156
:10570000006E200EB517000E300EB5AB11D0B59B54
:10571000B451D8A4B5070050B56F2D0E0501AF6F79
:105720000001F3EC19F00401B551006EB56B300EB9
:10573000002600C0AFF50001F3EC19F00401D89287
:10574000BCC4C7F5BBC4C6F5BAC4C5F5B9C4C4F575
:105750000501CB6BCA6BC96B0A0EC86F0001E9EC7F
:1057600008F003C0BCF402C0BBF401C0BAF400C02E
:10577000B9F40401B72F74D7000112008E0E006E29
:105780000401B051005EB1C402F0B2C401F0028E57
:10579000005209E0D890025202E1015204E00232C4
:1057A0000132002EF7D7B1AF05D0011E021E012A2B
:1057B000D8B4022A000112000401C369030EC46FA9
:1057C000C56BC66BC76B020EC86FD10EC96FD50E05
:1057D000CA6FCB6BCB5107080FE3036ACB51C30FE2
:1057E000E96E040E0320EA6EEFCFCFF400013BEC2C
:1057F00024F00401CB2BEED700010CEF2CF00401B8
:10580000B16BB26BB66BB56BB46BB36BBA6BB96B98
:10581000B86BB76B0001D0D7040E0401C66F800EC1
:10582000C56F090EC76F0001DCEC25F001C0B2F4B2
:105830000401B22D7DD1803D7BD181510308D8A4D4
:1058400077D1B26B8339006E0F0E001600C0C5F41D
:10585000CB6B00C0CAF4100ECD6FCC6B000199EC7D
:1058600006F002C0C5F401C0C4F4040183510F0B5B
:10587000C76FCB6BCA6F010ECD6FCC6B000199EC7B
:1058800006F002C003F001500401C425016EC551A9
:10589000032201C0C9F403C0CAF4000154EC22F091
:1058A00003C0B6F402C0B5F401C0B4F400C0B3F450
:1058B00004018439006E0F0E00160050100DF3CF56
:1058C000C4F484510F0BC425CA6BC96F000154EC9A
:1058D00022F003C0BAF402C0B9F401C0B8F400C0A9
:1058E000B7F404018339006E0F0E001600C0C5F432
:1058F000CB6B00C0CAF4100ECD6FCC6B000199ECDD
:1059000006F002C0C5F401C0C4F4040183510F0BBA
:10591000C76FCB6BCA6F010ECD6FCC6B000199ECDA
:1059200006F002C003F001500401C425016EC55108
:10593000032201C0C9F403C0CAF4000154EC22F0F0
:1059400003C0B6F402C0B5F401C0B4F400C0B3F4AF
:1059500004018439006E0F0E00160050100DF3CFB5
:10596000C4F484510F0BC425CA6BC96F000154ECF9
:1059700022F003C0BAF402C0B9F401C0B8F400C008
:10598000B7F4D892B6C4CAF4B5C4C9F4B4C4C8F460
:10599000B3C4C7F4BAC4CEF4B9C4CDF4B8C4CCF41B
:1059A000B7C4CBF49BEC26F003C0C6F402C0C5F428
:1059B00001C0C4F400C0C3F403C0CCF402C0CBF4F3
:1059C00001C0CAF400C0C9F40401D06BCF6B480E0B
:1059D000CE6F850ECD6F0001EAEC22F003C0C6F455
:1059E00002C0C5F401C0C4F400C0C3F4D88203C02F
:1059F000CAF402C0C9F401C0C8F400C0C7F404016D
:105A0000CE6BCD6B200ECC6F840ECB6F00019BEC68
:105A100026F003C0BEF402C0BDF401C0BCF400C057
:105A2000BBF404018539006E0F0E001600C0C5F4EA
:105A3000CB6B00C0CAF4100ECD6FCC6B000199EC9B
:105A400006F002C0C5F401C0C4F4040185510F0B77
:105A5000C76FCB6BCA6F010ECD6FCC6B000199EC99
:105A600006F002C003F001500401C425016EC551C7
:105A7000032201C0C9F403C0CAF4000154EC22F0AF
:105A800003C0B6F402C0B5F401C0B4F400C0B3F46E
:105A900004018639006E0F0E00160050100DF3CF72
:105AA000C4F486510F0BC425CA6BC96F000154ECB6
:105AB00022F003C0BAF402C0B9F401C0B8F400C0C7
:105AC000B7F4D892B6C4CAF4B5C4C9F4B4C4C8F41F
:105AD000B3C4C7F4BAC4CEF4B9C4CDF4B8C4CCF4DA
